:100000000C9450000C94EC0D0C94EC0D0C94EC0D35
:100010000C94EC0D0C94EC0D0C94EC0D0C94EC0D7C
:100020000C94EC0D0C94EC0D0C94EC0D0C94EC0D6C
:100030000C94EC0D0C94EC0D0C94EC0D0C94EC0D5C
:100040000C94EC0D0C94EC0D0C94EC0D0C94EC0D4C
:100050000C94EC0D8A068E058E058E058E058E0598
:100060008E0585068E058E058E058E058E059C05F2
:10007000B405220658065F0666066D0674067B0602
:1000800082060060006B80006B0083001BE600832B
:10009000008E80008E008F0002AB008F00938000E6
:1000A00011241FBECFE5D8E0DEBFCDBFE2E8F0E00F
:1000B00040E017C0B591A59135912591059107FDB7
:1000C0000CC095918591EF01F92FE82F05900D92C5
:1000D000A217B307D9F7FE0104C01D92A217B307F8
:1000E000E1F7EF39F40731F70E9456010C94CA0D7D
:0400F000F894FFCFB2
:1000F40020312D55502F444F574E00322D5055541A
:100104002F5052494E4700332D524F5441544520ED
:100114004657442F52565300342D444F4F52204FCC
:1001240050454E2F434C4F53450020312D55500020
:10013400322D646F776E00332D6261636B0020771C
:10014400616974696E672075702066756E6300203E
:1001540075702066756E6320646F6E65002077612C
:100164006974696E6720646F776E2066756E6300CC
:1001740020646F776E2066756E6320646F6E650011
:1001840020312D70757400322D6272696E67002003
:1001940077616974696E67207075742066756E6323
:1001A40000207075742066756E6320646F6E650040
:1001B4002077616974696E67206272696E67206670
:1001C400756E00206272696E672066756E632064C6
:1001D4006F6E650020312D726F74617465206677CF
:1001E4006400322D726F746174652072767300201E
:1001F40077616974696E6720726F74462066756EE4
:100204000020726F74462066756E6320646F6E659D
:10021400002077616974696E6720726F745220667A
:10022400756E630020726F74522066756E6320646D
:100234006F6E650020312D6F70656E20646F6F7274
:1002440000322D636C6F736520646F6F72002077CA
:10025400616974696E67206F70656E2066756E6380
:1002640000207570206F70656E20646F6E650020CD
:1002740077616974696E6720636C6F736520667556
:100284006E630020646F776E20636C6F7365206407
:100294006F6E6500202020204175746F6D61746954
:0702A40063206D6F6465002B
:0102AB000151
:1002AC0087E690E00E94D50D40E060E083E00E947C
:1002BC008F0641E061E083E00E948F0641E060E040
:1002CC0081E00E948F0641E061E081E00E948F0690
:1002DC0041E062E081E00E948F0641E063E081E052
:1002EC000E948F0641E065E082E00E948F0641E0AB
:1002FC0064E082E00E948F0641E066E082E00E94AA
:10030C008F0641E067E082E00E948F0641E060E0EA
:10031C0080E00E948F0641E062E080E00E948F0640
:10032C0041E061E080E00E948F0641E063E080E004
:10033C000E948F0641E065E080E00E948F0641E05C
:10034C0064E080E00E948F0641E066E080E00E945D
:10035C008F0641E067E080E00E948F0640E062E09B
:10036C0083E00E948F0640E063E083E00E948F06EA
:10037C0040E064E083E00E948F0640E065E083E0AB
:10038C000E948F0640E066E083E00E948F060E9488
:10039C00ED078DE00E945A0864E083E00E94FB0C9C
:1003AC0080938C0065E083E00E94FB0C80938B00B3
:1003BC0066E083E00E94FB0C80938A0080918C00A5
:1003CC00813009F091C380918E00813009F071C0A9
:1003DC0080918D00811129C081E080938D000E9455
:1003EC005A0860E080E00E94920D64EF70E080E0BB
:1003FC000E94710D60E081E00E94920D6FEF70E041
:10040C0080E00E94710D60E082E00E94920D6BE032
:10041C0071E080E00E94710D60E083E00E94920D1B
:10042C006CE171E080E00E94710D64E083E00E9459
:10043C00FB0C813089F464E083E00E94FB0C811199
:10044C00FACF809190008150809390008F3FC9F437
:10045C0083E08093900015C065E083E00E94FB0C64
:10046C00813079F465E083E00E94FB0C8111FACFB6
:10047C00809190008F5F80939000843011F41092E3
:10048C00900060E0809190000E94920D66E083E005
:10049C000E94FB0C813009F096CF66E083E00E944D
:1004AC00FB0C8111FACF80918E008F5F80938E00B0
:1004BC008ACF823009F087CF80919000813009F487
:1004CC00CDC01CF4882341F07ECF823009F488C162
:1004DC00833009F447C277CF80918D008130F9F4D5
:1004EC0010928D000E945A0860E080E00E94920DEC
:1004FC006EE271E080E00E94710D60E081E00E948C
:10050C00920D64E371E080E00E94710D60E082E086
:10051C000E94920D6BE371E080E00E94710D64E02B
:10052C0083E00E94FB0C813089F464E083E00E943C
:10053C00FB0C8111FACF80918F00815080938F003A
:10054C008823CCF482E080938F0015C065E083E0B3
:10055C000E94FB0C813079F465E083E00E94FB0C77
:10056C008111FACF80918F008F5F80938F00833041
:10057C0014F010928F0060E080918F000E94920D19
:10058C0066E083E00E94FB0C813009F01CCF66E032
:10059C0083E00E94FB0C8111FACF80918F00813097
:1005AC0069F1823009F452C081110DCF81E0809342
:1005BC008D000E945A0860E080E00E94920D62E477
:1005CC0071E080E00E94710D84EE92E00E9420099F
:1005DC0081E00E945A0860E080E00E94920D63E581
:1005EC0071E080E00E94710D2FE382E49FE02150C6
:1005FC0080409040E1F700C00000E5CE81E08093A0
:10060C008D000E945A0860E080E00E94920D61E625
:10061C0071E080E00E94710D84EE92E00E948009EE
:10062C0081E00E945A0860E080E00E94920D64E72D
:10063C0071E080E00E94710D2FE382E49FE0215075
:10064C0080409040E1F700C00000BDCE80918E004C
:10065C00815080938E0010928F00B5CE80918D00CA
:10066C008130F9F410928D000E945A0860E080E00D
:10067C000E94920D64E871E080E00E94710D60E0D0
:10068C0081E00E94920D6BE871E080E00E94710D98
:10069C0060E082E00E94920D6BE371E080E00E94CA
:1006AC00710D64E083E00E94FB0C813089F464E0FE
:1006BC0083E00E94FB0C8111FACF80918F00815056
:1006CC0080938F008823CCF482E080938F0015C038
:1006DC0065E083E00E94FB0C813079F465E083E0F7
:1006EC000E94FB0C8111FACF80918F008F5F809359
:1006FC008F00833014F010928F0060E080918F0097
:10070C000E94920D66E083E00E94FB0C813009F0A0
:10071C005ACE66E083E00E94FB0C8111FACF8091E7
:10072C008F00813069F1823009F452C081114BCEB7
:10073C0081E080938D000E945A0860E080E00E9466
:10074C00920D63E971E080E00E94710D82ED90E002
:10075C000E94000B81E00E945A0860E080E00E9439
:10076C00920D65EA71E080E00E94710D2FE382E446
:10077C009FE0215080409040E1F700C0000023CE64
:10078C0081E080938D000E945A0860E080E00E9416
:10079C00920D64EB71E080E00E94710D82ED90E0AF
:1007AC000E94A00A81E00E945A0860E080E00E944A
:1007BC00920D67EC71E080E00E94710D2FE382E4F2
:1007CC009FE0215080409040E1F700C00000FBCD3D
:1007DC0080918E00815080938E0010928F00F3CD0B
:1007EC0080918D008130F9F410928D000E945A088E
:1007FC0060E080E00E94920D68ED71E080E00E9464
:10080C00710D60E081E00E94920D66EE71E080E077
:10081C000E94710D60E082E00E94920D6BE371E02A
:10082C0080E00E94710D64E083E00E94FB0C81303B
:10083C0089F464E083E00E94FB0C8111FACF809173
:10084C008F00815080938F008823CCF482E08093BA
:10085C008F0015C065E083E00E94FB0C813079F4B9
:10086C0065E083E00E94FB0C8111FACF80918F0030
:10087C008F5F80938F00833014F010928F0060E0B4
:10088C0080918F000E94920D66E083E00E94FB0C29
:10089C00813009F098CD66E083E00E94FB0C811159
:1008AC00FACF80918F00813069F1823009F452C007
:1008BC00811189CD81E080938D000E945A0860E0FF
:1008CC0080E00E94920D63EF71E080E00E94710D58
:1008DC008EE290E00E94E00981E00E945A0860E0FC
:1008EC0080E00E94920D65E072E080E00E94710D44
:1008FC002FE382E49FE0215080409040E1F700C05C
:10090C00000061CD81E080938D000E945A0860E068
:10091C0080E00E94920D65E172E080E00E94710D12
:10092C008EE290E00E94400A81E00E945A0860E04A
:10093C0080E00E94920D68E272E080E00E94710DEE
:10094C002FE382E49FE0215080409040E1F700C00B
:10095C00000039CD80918E00815080938E001092D2
:10096C008F0031CD80918D008130F9F410928D0083
:10097C000E945A0860E080E00E94920D68E372E0E9
:10098C0080E00E94710D60E081E00E94920D65E4B0
:10099C0072E080E00E94710D60E082E00E94920D96
:1009AC006BE371E080E00E94710D64E083E00E94D3
:1009BC00FB0C813089F464E083E00E94FB0C811114
:1009CC00FACF80918F00815080938F008823CCF4D4
:1009DC0082E080938F0015C065E083E00E94FB0CE1
:1009EC00813079F465E083E00E94FB0C8111FACF31
:1009FC0080918F008F5F80938F00833014F0109262
:100A0C008F0060E080918F000E94920D66E083E081
:100A1C000E94FB0C813009F0D6CC66E083E00E948A
:100A2C00FB0C8111FACF80918F00813069F18230FB
:100A3C0009F452C08111C7CC81E080938D000E94D3
:100A4C005A0860E080E00E94920D62E572E080E05E
:100A5C000E94710D84EB90E00E94B90B81E00E9422
:100A6C005A0860E080E00E94920D65E672E080E03A
:100A7C000E94710D2FE382E49FE021508040904052
:100A8C00E1F700C000009FCC81E080938D000E94B4
:100A9C005A0860E080E00E94920D63E772E080E00B
:100AAC000E94710D84EB90E00E94600B81E00E942B
:100ABC005A0860E080E00E94920D67E872E080E0E6
:100ACC000E94710D2FE382E49FE021508040904002
:100ADC00E1F700C0000077CC80918E0081508093AC
:100AEC008E0010928F006FCC80918B00813009F0BA
:100AFC0053CC8CE00E945A0881E00E945A0862E0B4
:100B0C0080E00E94920D68E972E080E00E94710D15
:100B1C000E94DC0D8093610090E0FC01B397E731FB
:100B2C00F105B0F7E65DFF4F0C94E20D809191005A
:100B3C00883020F485E40E94E80D03C086E40E940E
:100B4C00E80D2FE38DE093E0215080409040E1F7D9
:100B5C0000C0000082E50E94E80DDACF8091910080
:100B6C00883020F083E40E94E80DD2CF0E94A90DBA
:100B7C00C0E059C00C2F10E0F801EE59FF4F8081F6
:100B8C00811150C063E083E00E94FB0C80939200C3
:100B9C00813081F584EB90E00E94B90B62E083E038
:100BAC000E94FB0C8093920006C062E083E00E94DE
:100BBC00FB0C80939200809192008130B1F72FEF63
:100BCC0081E19AE7215080409040E1F700C000009D
:100BDC0084EB90E00E94600B809189008F5F809382
:100BEC00890080E38C0F809360000E94E80DC43074
:100BFC0028F00EC08AE50E94E80D18C06C2F80E02A
:100C0C000E94630CF801EE59FF4F81E080830EC007
:100C1C006C2F81E00E94630CF801EE59FF4F81E0CC
:100C2C00808304C0CF5FC83008F4A4CF84E40E9452
:100C3C00E80D0E94120C6CCF80919100811107C0BD
:100C4C008EE40E94E80D82E50E94E80D61CF809150
:100C5C0089008150809389000E94A90D89E50E942A
:100C6C00E80D0E94390D8093610060918900683015
:100C7C0020F08FE40E94E80D4BCFE62FF0E0EE5908
:100C8C00FF4F1082643020F480E00E947B0740CF3D
:100C9C00645081E00E947B0784E40E94E80D0E946E
:100CAC00120C36CF84EE92E00E9420090E94120CA6
:100CBC002FCF84EE92E00E9480090E94120C28CF64
:100CCC008EE290E00E94E0090E94120C21CF8EE28D
:100CDC0090E00E94400A0E94120C1ACF82ED90E024
:100CEC000E94000B0E94120C13CF82ED90E00E9428
:100CFC00A00A0E94120C0CCF0E94120C09CF84EB9C
:100D0C0090E00E94B90B04CF84EB90E00E94600B42
:020D1C00FFCE08
:100D1E00843008F072C0683008F06FC04130A1F521
:100D2E00813089F028F08230C9F0833011F10895B6
:100D3E002AB381E090E002C0880F991F6A95E2F70E
:100D4E00822B8ABB089527B381E090E002C0880F02
:100D5E00991F6A95E2F7822B87BB089524B381E031
:100D6E0090E002C0880F991F6A95E2F7822B84BB30
:100D7E00089521B381E090E002C0880F991F6A9513
:100D8E00E2F7822B81BB0895411137C0813091F07B
:100D9E0028F08230D9F0833029F108952AB381E00A
:100DAE0090E002C0880F991F6A95E2F78095822322
:100DBE008ABB089527B381E090E002C0880F991F87
:100DCE006A95E2F78095822387BB089524B381E06C
:100DDE0090E002C0880F991F6A95E2F780958223F2
:100DEE0084BB089521B381E090E002C0880F991F63
:0C0DFE006A95E2F78095822381BB08957E
:100E0A00843008F072C0683008F06FC04130A1F534
:100E1A00813089F028F08230C9F0833011F10895C9
:100E2A002BB381E090E002C0880F991F6A95E2F720
:100E3A00822B8BBB089528B381E090E002C0880F13
:100E4A00991F6A95E2F7822B88BB089525B381E042
:100E5A0090E002C0880F991F6A95E2F7822B85BB42
:100E6A00089522B381E090E002C0880F991F6A9525
:100E7A00E2F7822B82BB0895411137C0813091F08D
:100E8A0028F08230D9F0833029F108952BB381E01C
:100E9A0090E002C0880F991F6A95E2F78095822335
:100EAA008BBB089528B381E090E002C0880F991F98
:100EBA006A95E2F78095822388BB089525B381E07D
:100ECA0090E002C0880F991F6A95E2F78095822305
:100EDA0085BB089522B381E090E002C0880F991F74
:0C0EEA006A95E2F78095822382BB089590
:100EF6000F931F93CF93DF93C62F082F10E0000F99
:100F0600111F000F111F05581F4FF8018081918195
:100F1600A281B381815A9F4F0E948009D0E0CC0FF5
:100F2600DD1FCC0FDD1FC559DF4F888199810E94D7
:100F3600E00982ED90E00E94000B8FE590E00E94B0
:100F4600200982ED90E00E94A00AF801808191813B
:100F5600A281B381815A9F4F0E942009888199817D
:100F66000E94400A82ED90E00E94000B8FE590E01F
:100F76000E94800982ED90E00E94A00A84EB90E036
:100F86000E94B90B63E083E00E94FB0C8093920001
:100F960006C063E083E00E94FB0C80939200809180
:100FA60092008130B1F7FFEF21E18AE7F15020404E
:100FB6008040E1F700C0000084EB90E00E94600BE7
:100FC60080919100815080939100DF91CF911F9184
:040FD6000F910895DA
:100FDA0041E060E082E00E948F0641E061E082E049
:100FEA000E948F0641E062E082E00E948F0641E0A3
:100FFA0063E082E00E948F0641E067E083E00E949E
:10100A008F0641E064E081E00E948F0687E893E161
:10101A000197F1F700C0000088E30E945A0881EEA8
:10102A0094E00197F1F700C0000088E30E945A0893
:10103A0092E39A95F1F788E30E945A0881E00E94A8
:10104A005A0881EE94E00197F1F700C0000082E0AF
:10105A000E945A0881EE94E00197F1F700C000005F
:10106A0086E00E945A0883EF91E00197F1F700C0E9
:10107A0000008CE00E945A0889EF90E00197F1F78E
:10108A0000C0000088E20E945A0889EF90E00197A8
:10109A00F1F700C0000080E80E945A0889EF90E04A
:0A10AA000197F1F700C0000008955F
:1010B400CF93C82F40E067E083E00E940507C4FB9C
:1010C400442740F960E082E00E940507C5FB4427FD
:1010D40040F961E082E00E940507C6FB442740F91D
:1010E40062E082E00E9405074C2F441F4427441FFE
:1010F40063E082E00E94050741E064E081E00E9431
:10110400050786E08A95F1F700C040E064E081E0DD
:101114000E9405074C2F417060E082E00E940507A1
:10112400C1FB442740F961E082E00E940507C2FB4D
:10113400442740F962E082E00E940507C3FB44278C
:1011440040F963E082E00E94050741E064E081E049
:101154000E94050796E09A95F1F700C040E064E02C
:1011640081E00E94050783EC99E00197F1F700C044
:061174000000CF91089578
:10117A00CF93C82F41E067E083E00E940507C4FBD4
:10118A00442740F960E082E00E940507C5FB442736
:10119A0040F961E082E00E940507C6FB442740F956
:1011AA0062E082E00E9405074C2F441F4427441F37
:1011BA0063E082E00E94050741E064E081E00E946A
:1011CA00050786E08A95F1F700C040E064E081E017
:1011DA000E9405074C2F417060E082E00E940507DB
:1011EA00C1FB442740F961E082E00E940507C2FB87
:1011FA00442740F962E082E00E940507C3FB4427C6
:10120A0040F963E082E00E94050741E064E081E082
:10121A000E94050796E09A95F1F700C040E064E065
:10122A0081E00E94050783EC99E00197F1F700C07D
:06123A000000CF910895B1
:101240000F931F93CF93DF938C01C0E0D0E04FC08A
:1012500041E060E081E00E94050741E062E081E05A
:101260000E94050787E893E10197F1F700C00000AD
:1012700040E060E081E00E94050741E061E081E03C
:101280000E94050787E893E10197F1F700C000008D
:1012900041E063E081E00E94050740E062E081E018
:1012A0000E94050787E893E10197F1F700C000006D
:1012B00041E060E081E00E94050740E061E081E0FC
:1012C0000E94050787E893E10197F1F700C000004D
:1012D00040E063E081E00E940507809187009091E3
:1012E0008800019790938800809387002196C0170B
:1012F000D10708F4ADCFDF91CF911F910F910895E1
:101300000F931F93CF93DF938C01C0E0D0E04FC0C9
:1013100041E063E081E00E94050741E060E081E098
:101320000E94050787E893E10197F1F700C00000EC
:1013300040E060E081E00E94050741E061E081E07B
:101340000E94050787E893E10197F1F700C00000CC
:1013500040E063E081E00E94050741E062E081E057
:101360000E94050787E893E10197F1F700C00000AC
:1013700041E060E081E00E94050740E061E081E03B
:101380000E94050787E893E10197F1F700C000008C
:1013900040E062E081E00E94050780918700909123
:1013A0008800019690938800809387002196C0174B
:1013B000D10708F4ADCFDF91CF911F910F91089520
:1013C0000F931F93CF93DF938C01C0E0D0E04FC009
:1013D00041E065E082E00E94050741E066E082E0CE
:1013E0000E9405078DE292E20197F1F700C000002C
:1013F00040E065E082E00E94050741E064E082E0B1
:101400000E9405078DE292E20197F1F700C000000B
:1014100041E067E082E00E94050740E066E082E08C
:101420000E9405078DE292E20197F1F700C00000EB
:1014300041E065E082E00E94050740E064E082E070
:101440000E9405078DE292E20197F1F700C00000CB
:1014500040E067E082E00E9405078091850090915E
:101460008600019690938600809385002196C01790
:10147000D10708F4ADCFDF91CF911F910F9108955F
:101480000F931F93CF93DF938C01C0E0D0E04FC048
:1014900041E067E082E00E94050741E065E082E00C
:1014A0000E9405078DE292E20197F1F700C000006B
:1014B00040E065E082E00E94050741E064E082E0F0
:1014C0000E9405078DE292E20197F1F700C000004B
:1014D00040E067E082E00E94050741E066E082E0CC
:1014E0000E9405078DE292E20197F1F700C000002B
:1014F00041E065E082E00E94050740E064E082E0B0
:101500000E9405078DE292E20197F1F700C000000A
:1015100040E066E082E00E9405078091850090919E
:101520008600019790938600809385002196C017CE
:10153000D10708F4ADCFDF91CF911F910F9108959E
:101540000F931F93CF93DF938C01C0E0D0E04FC087
:1015500041E060E080E00E94050741E062E080E059
:101560000E9405078BE49DE10197F1F700C00000A0
:1015700040E060E080E00E94050741E061E080E03B
:101580000E9405078BE49DE10197F1F700C0000080
:1015900040E062E080E00E94050741E063E080E017
:1015A0000E9405078BE49DE10197F1F700C0000060
:1015B00041E060E080E00E94050740E061E080E0FB
:1015C0000E9405078BE49DE10197F1F700C0000040
:1015D00040E063E080E00E940507809183009091E5
:1015E0008400019690938400809383002196C01715
:1015F000D10708F4ADCFDF91CF911F910F910895DE
:101600000F931F93CF93DF938C01C0E0D0E04FC0C6
:1016100041E060E080E00E94050741E063E080E097
:101620000E9405078BE49DE10197F1F700C00000DF
:1016300040E060E080E00E94050741E061E080E07A
:101640000E9405078BE49DE10197F1F700C00000BF
:1016500041E062E080E00E94050740E063E080E056
:101660000E9405078BE49DE10197F1F700C000009F
:1016700041E060E080E00E94050740E061E080E03A
:101680000E9405078BE49DE10197F1F700C000007F
:1016900040E062E080E00E94050780918300909125
:1016A0008400019790938400809383002196C01753
:1016B000D10708F4ADCFDF91CF911F910F9108951D
:1016C0000F931F93CF93DF938C01C0E0D0E046C00F
:1016D00041E065E080E00E94050741E066E080E0CF
:1016E0000E9405078DE292E20197F1F700C0000029
:1016F00040E065E080E00E94050741E064E080E0B2
:101700000E9405078DE292E20197F1F700C0000008
:1017100041E067E080E00E94050740E066E080E08D
:101720000E9405078DE292E20197F1F700C00000E8
:1017300040E064E080E00E94050741E065E080E071
:101740000E9405078DE292E20197F1F700C00000C8
:1017500040E067E080E00E9405072196C017D107AE
:1017600008F4B6CF0E94120CDF91CF911F910F9118
:021770000895DA
:101772000F931F93CF93DF938C01C0E0D0E046C05C
:1017820041E067E080E00E94050741E065E080E01B
:101792000E9405078DE292E20197F1F700C0000076
:1017A20040E065E080E00E94050741E064E080E0FF
:1017B2000E9405078DE292E20197F1F700C0000056
:1017C20040E067E080E00E94050741E066E080E0DB
:1017D2000E9405078DE292E20197F1F700C0000036
:1017E20041E065E080E00E94050740E064E080E0BF
:1017F2000E9405078DE292E20197F1F700C0000016
:1018020040E066E080E00E9405072196C017D107FC
:1018120008F4B6CF0E94120CDF91CF911F910F9165
:02182200089527
:1018240040E060E081E00E94050740E061E081E083
:101834000E94050740E062E081E00E94050740E065
:1018440063E081E00E94050740E065E082E00E94D9
:10185400050740E064E082E00E94050740E066E09E
:1018640082E00E94050740E067E082E00E940507ED
:1018740040E060E080E00E94050740E062E080E034
:101884000E94050740E061E080E00E94050740E017
:1018940063E080E00E94050740E065E080E00E948C
:1018A400050740E064E080E00E94050740E066E050
:1018B40080E00E94050740E067E080E00E940507A1
:0218C400089585
:1018C6000F931F93CF93DF93082FC62F82ED90E0DF
:1018D6000E94000B8FE590E00E94200982ED90E0C7
:1018E6000E94A00A10E0000F111F000F111F0558DB
:1018F6001F4FF80180819181A281B381815A9F4F48
:101906000E948009D0E0CC0FDD1FCC0FDD1FC5592A
:10191600DF4F888199810E94E00982ED90E00E9464
:10192600000B8FE590E00E94800982ED90E00E9416
:10193600A00AF80180819181A281B381815A9F4FCB
:101946000E942009888199810E94400A8091910015
:101956008F5F80939100DF91CF911F910F91089532
:10196600CF939B01482FF901849147FD80818032F6
:10197600C9F1682F082E000C770B69507109653084
:10198600710580F18B3249F5A0E0B0E02F5F3F4F43
:101996004F4F02C0A0E0B0E080E090E0CAE0F9015D
:1019A600649147FD6081062E000C770B6053710928
:1019B6006A30710560F4C89FF001C99FF00D1124CB
:1019C6002F5F3F4F4F4FCF01861B970BE8CFAB2BB7
:1019D60069F491958195910909C08D32D9F6A1E0F6
:1019E600B0E0D4CF2F5F3F4F4F4FBDCFCF9108957B
:1019F6008430B0F56830A0F5813089F028F0823067
:101A0600C9F0833011F12FC089B390E002C09595DB
:101A160087956A95E2F7817080936A0024C086B341
:101A260090E002C0959587956A95E2F7817080935C
:101A36006A0019C083B390E002C0959587956A95B0
:101A4600E2F7817080936A000EC080B390E002C016
:101A5600959587956A95E2F7817080936A0003C031
:0C1A66008FEF80936A0080916A00089561
:101A7200CF93DF93CDB7DEB760970FB6F894DEBF92
:101A82000FBECDBF0E94BC0D90E0292F5F9BFECF01
:101A92008CB18D3071F08A3071F091E0920FE1E0FB
:101AA200F0E0EC0FFD1FE20FF11D80839F3068F321
:101AB20003C0922F01C0922FE1E0F0E0EC0FFD1F76
:101AC200E90FF11D1082CE0101960E94B30C6096BF
:101AD2000FB6F894DEBF0FBECDBFDF91CF91089550
:101AE200CF92DF92EF92CF936B01E82EC0E009C054
:101AF2000E94BD08CF5F83EF91E00197F1F700C02C
:101B02000000AE2DC6018C0F911DA11DFC01849118
:101B1200A7FD80818111ECCFCF91EF90DF90CF9024
:021B2200089524
:101B2400813031F070F0823031F0833039F00AC006
:101B340090E4960F07C094E1960F04C094E5960FC5
:0E1B440001C0962F892F80680E945A080895CC
:101B520080918700909188000E94200980918500E1
:101B6200909186000E94400A8091830090918400A7
:061B72000E94A00A089584
:101B7800CF93DF930F92CDB7DEB702C08CB18983C4
:0C1B88005F99FCCF0F90DF91CF91089582
:101B9400EC010E94F10D0E94F00DCE010E94F20DA5
:061BA400CE010E94EE0DCF
:0E1BAA0090BD89B988E18AB986E880BD0895AA
:0C1BB8000E94BC0D5F9BFECF8CB1089515
:0C1BC400EE0FFF1F0590F491E02D099436
:081BD0005D9BFECF8CB9089566
:041BD8000C94000069
:041BDC000E947800EB
:021BE000089566
:021BE200089564
:021BE400089562
:101BE600000000002E0000005C0000008A000000DB
:081BF600E4020000C805000034
:00000001FF
